{
  "contractName": "NFT",
  "abi": [
    {
      "inputs": [
        {
          "internalType": "string",
          "name": "name",
          "type": "string"
        },
        {
          "internalType": "address",
          "name": "marketPlaceAddress",
          "type": "address"
        },
        {
          "internalType": "address",
          "name": "ownerContract",
          "type": "address"
        },
        {
          "internalType": "string",
          "name": "albumCoverURI",
          "type": "string"
        }
      ],
      "stateMutability": "nonpayable",
      "type": "constructor"
    },
    {
      "anonymous": false,
      "inputs": [
        {
          "indexed": true,
          "internalType": "address",
          "name": "owner",
          "type": "address"
        },
        {
          "indexed": true,
          "internalType": "address",
          "name": "approved",
          "type": "address"
        },
        {
          "indexed": true,
          "internalType": "uint256",
          "name": "tokenId",
          "type": "uint256"
        }
      ],
      "name": "Approval",
      "type": "event"
    },
    {
      "anonymous": false,
      "inputs": [
        {
          "indexed": true,
          "internalType": "address",
          "name": "owner",
          "type": "address"
        },
        {
          "indexed": true,
          "internalType": "address",
          "name": "operator",
          "type": "address"
        },
        {
          "indexed": false,
          "internalType": "bool",
          "name": "approved",
          "type": "bool"
        }
      ],
      "name": "ApprovalForAll",
      "type": "event"
    },
    {
      "anonymous": false,
      "inputs": [
        {
          "indexed": true,
          "internalType": "address",
          "name": "from",
          "type": "address"
        },
        {
          "indexed": true,
          "internalType": "address",
          "name": "to",
          "type": "address"
        },
        {
          "indexed": true,
          "internalType": "uint256",
          "name": "tokenId",
          "type": "uint256"
        }
      ],
      "name": "Transfer",
      "type": "event"
    },
    {
      "inputs": [
        {
          "internalType": "address",
          "name": "to",
          "type": "address"
        },
        {
          "internalType": "uint256",
          "name": "tokenId",
          "type": "uint256"
        }
      ],
      "name": "approve",
      "outputs": [],
      "stateMutability": "nonpayable",
      "type": "function"
    },
    {
      "inputs": [
        {
          "internalType": "address",
          "name": "owner",
          "type": "address"
        }
      ],
      "name": "balanceOf",
      "outputs": [
        {
          "internalType": "uint256",
          "name": "",
          "type": "uint256"
        }
      ],
      "stateMutability": "view",
      "type": "function"
    },
    {
      "inputs": [
        {
          "internalType": "uint256",
          "name": "tokenId",
          "type": "uint256"
        }
      ],
      "name": "getApproved",
      "outputs": [
        {
          "internalType": "address",
          "name": "",
          "type": "address"
        }
      ],
      "stateMutability": "view",
      "type": "function"
    },
    {
      "inputs": [
        {
          "internalType": "address",
          "name": "owner",
          "type": "address"
        },
        {
          "internalType": "address",
          "name": "operator",
          "type": "address"
        }
      ],
      "name": "isApprovedForAll",
      "outputs": [
        {
          "internalType": "bool",
          "name": "",
          "type": "bool"
        }
      ],
      "stateMutability": "view",
      "type": "function"
    },
    {
      "inputs": [],
      "name": "name",
      "outputs": [
        {
          "internalType": "string",
          "name": "",
          "type": "string"
        }
      ],
      "stateMutability": "view",
      "type": "function"
    },
    {
      "inputs": [
        {
          "internalType": "uint256",
          "name": "tokenId",
          "type": "uint256"
        }
      ],
      "name": "ownerOf",
      "outputs": [
        {
          "internalType": "address",
          "name": "",
          "type": "address"
        }
      ],
      "stateMutability": "view",
      "type": "function"
    },
    {
      "inputs": [
        {
          "internalType": "address",
          "name": "from",
          "type": "address"
        },
        {
          "internalType": "address",
          "name": "to",
          "type": "address"
        },
        {
          "internalType": "uint256",
          "name": "tokenId",
          "type": "uint256"
        }
      ],
      "name": "safeTransferFrom",
      "outputs": [],
      "stateMutability": "nonpayable",
      "type": "function"
    },
    {
      "inputs": [
        {
          "internalType": "address",
          "name": "from",
          "type": "address"
        },
        {
          "internalType": "address",
          "name": "to",
          "type": "address"
        },
        {
          "internalType": "uint256",
          "name": "tokenId",
          "type": "uint256"
        },
        {
          "internalType": "bytes",
          "name": "data",
          "type": "bytes"
        }
      ],
      "name": "safeTransferFrom",
      "outputs": [],
      "stateMutability": "nonpayable",
      "type": "function"
    },
    {
      "inputs": [
        {
          "internalType": "address",
          "name": "operator",
          "type": "address"
        },
        {
          "internalType": "bool",
          "name": "approved",
          "type": "bool"
        }
      ],
      "name": "setApprovalForAll",
      "outputs": [],
      "stateMutability": "nonpayable",
      "type": "function"
    },
    {
      "inputs": [
        {
          "internalType": "bytes4",
          "name": "interfaceId",
          "type": "bytes4"
        }
      ],
      "name": "supportsInterface",
      "outputs": [
        {
          "internalType": "bool",
          "name": "",
          "type": "bool"
        }
      ],
      "stateMutability": "view",
      "type": "function"
    },
    {
      "inputs": [],
      "name": "symbol",
      "outputs": [
        {
          "internalType": "string",
          "name": "",
          "type": "string"
        }
      ],
      "stateMutability": "view",
      "type": "function"
    },
    {
      "inputs": [
        {
          "internalType": "uint256",
          "name": "tokenId",
          "type": "uint256"
        }
      ],
      "name": "tokenURI",
      "outputs": [
        {
          "internalType": "string",
          "name": "",
          "type": "string"
        }
      ],
      "stateMutability": "view",
      "type": "function"
    },
    {
      "inputs": [
        {
          "internalType": "address",
          "name": "from",
          "type": "address"
        },
        {
          "internalType": "address",
          "name": "to",
          "type": "address"
        },
        {
          "internalType": "uint256",
          "name": "tokenId",
          "type": "uint256"
        }
      ],
      "name": "transferFrom",
      "outputs": [],
      "stateMutability": "nonpayable",
      "type": "function"
    },
    {
      "inputs": [
        {
          "internalType": "string[]",
          "name": "metaDataURIs",
          "type": "string[]"
        }
      ],
      "name": "createSongTokens",
      "outputs": [],
      "stateMutability": "nonpayable",
      "type": "function"
    },
    {
      "inputs": [
        {
          "internalType": "string",
          "name": "tokenURI",
          "type": "string"
        }
      ],
      "name": "createToken",
      "outputs": [
        {
          "internalType": "uint256",
          "name": "newItemId",
          "type": "uint256"
        }
      ],
      "stateMutability": "nonpayable",
      "type": "function"
    },
    {
      "inputs": [],
      "name": "getTotalTokens",
      "outputs": [
        {
          "internalType": "uint256",
          "name": "totalTokens",
          "type": "uint256"
        }
      ],
      "stateMutability": "view",
      "type": "function"
    },
    {
      "inputs": [],
      "name": "getSongsFromAlbum",
      "outputs": [
        {
          "internalType": "string[]",
          "name": "",
          "type": "string[]"
        }
      ],
      "stateMutability": "view",
      "type": "function"
    }
  ],
  "bytecode": "0x60806040523480156200001157600080fd5b506040516200373a3803806200373a8339818101604052810190620000379190620002f5565b838481600090816200004a9190620005f6565b5080600190816200005c9190620005f6565b50505081600a60006101000a81548173ffffffffffffffffffffffffffffffffffffffff021916908373ffffffffffffffffffffffffffffffffffffffff16021790555082600860006101000a81548173ffffffffffffffffffffffffffffffffffffffff021916908373ffffffffffffffffffffffffffffffffffffffff16021790555080600b9081620000f29190620005f6565b5050505050620006dd565b6000604051905090565b600080fd5b600080fd5b600080fd5b600080fd5b6000601f19601f8301169050919050565b7f4e487b7100000000000000000000000000000000000000000000000000000000600052604160045260246000fd5b62000166826200011b565b810181811067ffffffffffffffff821117156200018857620001876200012c565b5b80604052505050565b60006200019d620000fd565b9050620001ab82826200015b565b919050565b600067ffffffffffffffff821115620001ce57620001cd6200012c565b5b620001d9826200011b565b9050602081019050919050565b60005b8381101562000206578082015181840152602081019050620001e9565b60008484015250505050565b6000620002296200022384620001b0565b62000191565b90508281526020810184848401111562000248576200024762000116565b5b62000255848285620001e6565b509392505050565b600082601f83011262000275576200027462000111565b5b81516200028784826020860162000212565b91505092915050565b600073ffffffffffffffffffffffffffffffffffffffff82169050919050565b6000620002bd8262000290565b9050919050565b620002cf81620002b0565b8114620002db57600080fd5b50565b600081519050620002ef81620002c4565b92915050565b6000806000806080858703121562000312576200031162000107565b5b600085015167ffffffffffffffff8111156200033357620003326200010c565b5b62000341878288016200025d565b94505060206200035487828801620002de565b93505060406200036787828801620002de565b925050606085015167ffffffffffffffff8111156200038b576200038a6200010c565b5b62000399878288016200025d565b91505092959194509250565b600081519050919050565b7f4e487b7100000000000000000000000000000000000000000000000000000000600052602260045260246000fd5b60006002820490506001821680620003f857607f821691505b6020821081036200040e576200040d620003b0565b5b50919050565b60008190508160005260206000209050919050565b60006020601f8301049050919050565b60008160020a8302905092915050565b6000600883026200047b7fffffffffffffffffffffffffffffffffffffffffffffffffffffffffffffffff8262000439565b62000487868362000439565b95508019841693508086168417925050509392505050565b6000819050919050565b6000819050919050565b6000620004d4620004ce620004c8846200049f565b620004a9565b6200049f565b9050919050565b6000819050919050565b620004f083620004b3565b62000508620004ff82620004db565b84845462000449565b825550505050565b600090565b6200051f62000510565b6200052c818484620004e5565b505050565b5b8181101562000554576200054860008262000515565b60018101905062000532565b5050565b601f821115620005a3576200056d8162000414565b620005788462000429565b8101602085101562000588578190505b620005a0620005978562000429565b83018262000531565b50505b505050565b60008160020a8304905092915050565b6000620005cb60001984600802620005a8565b1980831691505092915050565b6000620005e68383620005b8565b9150826002028217905092915050565b6200060182620003a5565b67ffffffffffffffff8111156200061d576200061c6200012c565b5b620006298254620003df565b6200063682828562000558565b600060209050601f8311600181146200066e576000841562000659578287015190505b620006658582620005d8565b865550620006d5565b601f1984166200067e8662000414565b60005b82811015620006a85784890151825560018201915060208501945060208101905062000681565b86831015620006c85784890151620006c4601f891682620005b8565b8355505b6001600288020188555050505b505050505050565b61304d80620006ed6000396000f3fe608060405234801561001057600080fd5b5060043610610128576000357c0100000000000000000000000000000000000000000000000000000000900480636b317495116100bf578063b88d4fde1161008e578063b88d4fde146102e5578063c87b56dd14610301578063e9064a1314610331578063e985e9c51461034f578063f08b82e61461037f57610128565b80636b3174951461025f57806370a082311461027b57806395d89b41146102ab578063a22cb465146102c957610128565b806323b872dd116100fb57806323b872dd146101c757806342842e0e146101e357806345576f94146101ff5780636352211e1461022f57610128565b806301ffc9a71461012d57806306fdde031461015d578063081812fc1461017b578063095ea7b3146101ab575b600080fd5b61014760048036038101906101429190611afc565b61039d565b6040516101549190611b44565b60405180910390f35b61016561047f565b6040516101729190611bef565b60405180910390f35b61019560048036038101906101909190611c47565b610511565b6040516101a29190611cb5565b60405180910390f35b6101c560048036038101906101c09190611cfc565b610557565b005b6101e160048036038101906101dc9190611d3c565b61066e565b005b6101fd60048036038101906101f89190611d3c565b6106ce565b005b61021960048036038101906102149190611ec4565b6106ee565b6040516102269190611f1c565b60405180910390f35b61024960048036038101906102449190611c47565b61085f565b6040516102569190611cb5565b60405180910390f35b6102796004803603810190610274919061201d565b610910565b005b61029560048036038101906102909190612066565b610957565b6040516102a29190611f1c565b60405180910390f35b6102b3610a0e565b6040516102c09190611bef565b60405180910390f35b6102e360048036038101906102de91906120bf565b610aa0565b005b6102ff60048036038101906102fa91906121a0565b610ab6565b005b61031b60048036038101906103169190611c47565b610b18565b6040516103289190611bef565b60405180910390f35b610339610c2a565b604051610346919061232f565b60405180910390f35b61036960048036038101906103649190612351565b610cf2565b6040516103769190611b44565b60405180910390f35b610387610d86565b6040516103949190611f1c565b60405180910390f35b60007f80ac58cd000000000000000000000000000000000000000000000000000000007bffffffffffffffffffffffffffffffffffffffffffffffffffffffff1916827bffffffffffffffffffffffffffffffffffffffffffffffffffffffff1916148061046857507f5b5e139f000000000000000000000000000000000000000000000000000000007bffffffffffffffffffffffffffffffffffffffffffffffffffffffff1916827bffffffffffffffffffffffffffffffffffffffffffffffffffffffff1916145b80610478575061047782610d97565b5b9050919050565b60606000805461048e906123c0565b80601f01602080910402602001604051908101604052809291908181526020018280546104ba906123c0565b80156105075780601f106104dc57610100808354040283529160200191610507565b820191906000526020600020905b8154815290600101906020018083116104ea57829003601f168201915b5050505050905090565b600061051c82610e01565b6004600083815260200190815260200160002060009054906101000a900473ffffffffffffffffffffffffffffffffffffffff169050919050565b60006105628261085f565b90508073ffffffffffffffffffffffffffffffffffffffff168373ffffffffffffffffffffffffffffffffffffffff16036105d2576040517f08c379a00000000000000000000000000000000000000000000000000000000081526004016105c990612463565b60405180910390fd5b8073ffffffffffffffffffffffffffffffffffffffff166105f1610e4c565b73ffffffffffffffffffffffffffffffffffffffff161480610620575061061f8161061a610e4c565b610cf2565b5b61065f576040517f08c379a0000000000000000000000000000000000000000000000000000000008152600401610656906124f5565b60405180910390fd5b6106698383610e54565b505050565b61067f610679610e4c565b82610f0d565b6106be576040517f08c379a00000000000000000000000000000000000000000000000000000000081526004016106b590612587565b60405180910390fd5b6106c9838383610fa2565b505050565b6106e983838360405180602001604052806000815250610ab6565b505050565b60006106fa6007611208565b610704600761121e565b9050610710338261122c565b61071a8183611405565b610747600860009054906101000a900473ffffffffffffffffffffffffffffffffffffffff166001610aa0565b600860009054906101000a900473ffffffffffffffffffffffffffffffffffffffff16600960006101000a81548173ffffffffffffffffffffffffffffffffffffffff021916908373ffffffffffffffffffffffffffffffffffffffff160217905550600960009054906101000a900473ffffffffffffffffffffffffffffffffffffffff1673ffffffffffffffffffffffffffffffffffffffff1663384170ea30836000336040518563ffffffff167c010000000000000000000000000000000000000000000000000000000002815260040161082894939291906125ec565b600060405180830381600087803b15801561084257600080fd5b505af1158015610856573d6000803e3d6000fd5b50505050919050565b6000806002600084815260200190815260200160002060009054906101000a900473ffffffffffffffffffffffffffffffffffffffff169050600073ffffffffffffffffffffffffffffffffffffffff168173ffffffffffffffffffffffffffffffffffffffff1603610907576040517f08c379a00000000000000000000000000000000000000000000000000000000081526004016108fe9061267d565b60405180910390fd5b80915050919050565b60005b81518110156109535761093f8282815181106109325761093161269d565b5b60200260200101516106ee565b50808061094b906126fb565b915050610913565b5050565b60008073ffffffffffffffffffffffffffffffffffffffff168273ffffffffffffffffffffffffffffffffffffffff16036109c7576040517f08c379a00000000000000000000000000000000000000000000000000000000081526004016109be906127b5565b60405180910390fd5b600360008373ffffffffffffffffffffffffffffffffffffffff1673ffffffffffffffffffffffffffffffffffffffff168152602001908152602001600020549050919050565b606060018054610a1d906123c0565b80601f0160208091040260200160405190810160405280929190818152602001828054610a49906123c0565b8015610a965780601f10610a6b57610100808354040283529160200191610a96565b820191906000526020600020905b815481529060010190602001808311610a7957829003601f168201915b5050505050905090565b610ab2610aab610e4c565b8383611472565b5050565b610ac7610ac1610e4c565b83610f0d565b610b06576040517f08c379a0000000000000000000000000000000000000000000000000000000008152600401610afd90612587565b60405180910390fd5b610b12848484846115de565b50505050565b6060610b2382610e01565b6000600660008481526020019081526020016000208054610b43906123c0565b80601f0160208091040260200160405190810160405280929190818152602001828054610b6f906123c0565b8015610bbc5780601f10610b9157610100808354040283529160200191610bbc565b820191906000526020600020905b815481529060010190602001808311610b9f57829003601f168201915b505050505090506000610bcd61163a565b90506000815103610be2578192505050610c25565b600082511115610c17578082604051602001610bff929190612811565b60405160208183030381529060405292505050610c25565b610c2084611651565b925050505b919050565b60606000610c38600761121e565b905060008167ffffffffffffffff811115610c5657610c55611d99565b5b604051908082528060200260200182016040528015610c8957816020015b6060815260200190600190039081610c745790505b5090506000600190505b610c9d600761121e565b8111610ce957610cac81610b18565b82600183610cba9190612835565b81518110610ccb57610cca61269d565b5b60200260200101819052508080610ce1906126fb565b915050610c93565b50809250505090565b6000600560008473ffffffffffffffffffffffffffffffffffffffff1673ffffffffffffffffffffffffffffffffffffffff16815260200190815260200160002060008373ffffffffffffffffffffffffffffffffffffffff1673ffffffffffffffffffffffffffffffffffffffff16815260200190815260200160002060009054906101000a900460ff16905092915050565b6000610d92600761121e565b905090565b60007f01ffc9a7000000000000000000000000000000000000000000000000000000007bffffffffffffffffffffffffffffffffffffffffffffffffffffffff1916827bffffffffffffffffffffffffffffffffffffffffffffffffffffffff1916149050919050565b610e0a816116b9565b610e49576040517f08c379a0000000000000000000000000000000000000000000000000000000008152600401610e409061267d565b60405180910390fd5b50565b600033905090565b816004600083815260200190815260200160002060006101000a81548173ffffffffffffffffffffffffffffffffffffffff021916908373ffffffffffffffffffffffffffffffffffffffff160217905550808273ffffffffffffffffffffffffffffffffffffffff16610ec78361085f565b73ffffffffffffffffffffffffffffffffffffffff167f8c5be1e5ebec7d5bd14f71427d1e84f3dd0314c0f7b2291e5b200ac8c7c3b92560405160405180910390a45050565b600080610f198361085f565b90508073ffffffffffffffffffffffffffffffffffffffff168473ffffffffffffffffffffffffffffffffffffffff161480610f5b5750610f5a8185610cf2565b5b80610f9957508373ffffffffffffffffffffffffffffffffffffffff16610f8184610511565b73ffffffffffffffffffffffffffffffffffffffff16145b91505092915050565b8273ffffffffffffffffffffffffffffffffffffffff16610fc28261085f565b73ffffffffffffffffffffffffffffffffffffffff1614611018576040517f08c379a000000000000000000000000000000000000000000000000000000000815260040161100f906128db565b60405180910390fd5b600073ffffffffffffffffffffffffffffffffffffffff168273ffffffffffffffffffffffffffffffffffffffff1603611087576040517f08c379a000000000000000000000000000000000000000000000000000000000815260040161107e9061296d565b60405180910390fd5b611092838383611725565b61109d600082610e54565b6001600360008573ffffffffffffffffffffffffffffffffffffffff1673ffffffffffffffffffffffffffffffffffffffff16815260200190815260200160002060008282546110ed9190612835565b925050819055506001600360008473ffffffffffffffffffffffffffffffffffffffff1673ffffffffffffffffffffffffffffffffffffffff1681526020019081526020016000206000828254611144919061298d565b92505081905550816002600083815260200190815260200160002060006101000a81548173ffffffffffffffffffffffffffffffffffffffff021916908373ffffffffffffffffffffffffffffffffffffffff160217905550808273ffffffffffffffffffffffffffffffffffffffff168473ffffffffffffffffffffffffffffffffffffffff167fddf252ad1be2c89b69c2b068fc378daa952ba7f163c4a11628f55a4df523b3ef60405160405180910390a461120383838361172a565b505050565b6001816000016000828254019250508190555050565b600081600001549050919050565b600073ffffffffffffffffffffffffffffffffffffffff168273ffffffffffffffffffffffffffffffffffffffff160361129b576040517f08c379a000000000000000000000000000000000000000000000000000000000815260040161129290612a0d565b60405180910390fd5b6112a4816116b9565b156112e4576040517f08c379a00000000000000000000000000000000000000000000000000000000081526004016112db90612a79565b60405180910390fd5b6112f060008383611725565b6001600360008473ffffffffffffffffffffffffffffffffffffffff1673ffffffffffffffffffffffffffffffffffffffff1681526020019081526020016000206000828254611340919061298d565b92505081905550816002600083815260200190815260200160002060006101000a81548173ffffffffffffffffffffffffffffffffffffffff021916908373ffffffffffffffffffffffffffffffffffffffff160217905550808273ffffffffffffffffffffffffffffffffffffffff16600073ffffffffffffffffffffffffffffffffffffffff167fddf252ad1be2c89b69c2b068fc378daa952ba7f163c4a11628f55a4df523b3ef60405160405180910390a46114016000838361172a565b5050565b61140e826116b9565b61144d576040517f08c379a000000000000000000000000000000000000000000000000000000000815260040161144490612b0b565b60405180910390fd5b8060066000848152602001908152602001600020908161146d9190612cd3565b505050565b8173ffffffffffffffffffffffffffffffffffffffff168373ffffffffffffffffffffffffffffffffffffffff16036114e0576040517f08c379a00000000000000000000000000000000000000000000000000000000081526004016114d790612df1565b60405180910390fd5b80600560008573ffffffffffffffffffffffffffffffffffffffff1673ffffffffffffffffffffffffffffffffffffffff16815260200190815260200160002060008473ffffffffffffffffffffffffffffffffffffffff1673ffffffffffffffffffffffffffffffffffffffff16815260200190815260200160002060006101000a81548160ff0219169083151502179055508173ffffffffffffffffffffffffffffffffffffffff168373ffffffffffffffffffffffffffffffffffffffff167f17307eab39ab6107e8899845ad3d59bd9653f200f220920489ca2b5937696c31836040516115d19190611b44565b60405180910390a3505050565b6115e9848484610fa2565b6115f58484848461172f565b611634576040517f08c379a000000000000000000000000000000000000000000000000000000000815260040161162b90612e83565b60405180910390fd5b50505050565b606060405180602001604052806000815250905090565b606061165c82610e01565b600061166661163a565b9050600081511161168657604051806020016040528060008152506116b1565b80611690846118ee565b6040516020016116a1929190612811565b6040516020818303038152906040525b915050919050565b60008073ffffffffffffffffffffffffffffffffffffffff166002600084815260200190815260200160002060009054906101000a900473ffffffffffffffffffffffffffffffffffffffff1673ffffffffffffffffffffffffffffffffffffffff1614159050919050565b505050565b505050565b60006117508473ffffffffffffffffffffffffffffffffffffffff16611a6d565b156118e1578373ffffffffffffffffffffffffffffffffffffffff1663150b7a02611779610e4c565b8786866040518563ffffffff167c01000000000000000000000000000000000000000000000000000000000281526004016117b79493929190612ef8565b6020604051808303816000875af19250505080156117f357506040513d601f19601f820116820180604052508101906117f09190612f59565b60015b611875573d8060008114611823576040519150601f19603f3d011682016040523d82523d6000602084013e611828565b606091505b50600081510361186d576040517f08c379a000000000000000000000000000000000000000000000000000000000815260040161186490612e83565b60405180910390fd5b805181602001fd5b63150b7a027c0100000000000000000000000000000000000000000000000000000000027bffffffffffffffffffffffffffffffffffffffffffffffffffffffff1916817bffffffffffffffffffffffffffffffffffffffffffffffffffffffff1916149150506118e6565b600190505b949350505050565b606060008203611935576040518060400160405280600181526020017f30000000000000000000000000000000000000000000000000000000000000008152509050611a68565b600082905060005b60008214611967578080611950906126fb565b915050600a826119609190612fb5565b915061193d565b60008167ffffffffffffffff81111561198357611982611d99565b5b6040519080825280601f01601f1916602001820160405280156119b55781602001600182028036833780820191505090505b5090505b60008514611a61576001826119ce9190612835565b9150600a856119dd9190612fe6565b60306119e9919061298d565b7f010000000000000000000000000000000000000000000000000000000000000002818381518110611a1e57611a1d61269d565b5b60200101907effffffffffffffffffffffffffffffffffffffffffffffffffffffffffffff1916908160001a905350600a85611a5a9190612fb5565b94506119b9565b8093505050505b919050565b6000808273ffffffffffffffffffffffffffffffffffffffff163b119050919050565b6000604051905090565b600080fd5b600080fd5b60007fffffffff0000000000000000000000000000000000000000000000000000000082169050919050565b611ad981611aa4565b8114611ae457600080fd5b50565b600081359050611af681611ad0565b92915050565b600060208284031215611b1257611b11611a9a565b5b6000611b2084828501611ae7565b91505092915050565b60008115159050919050565b611b3e81611b29565b82525050565b6000602082019050611b596000830184611b35565b92915050565b600081519050919050565b600082825260208201905092915050565b60005b83811015611b99578082015181840152602081019050611b7e565b60008484015250505050565b6000601f19601f8301169050919050565b6000611bc182611b5f565b611bcb8185611b6a565b9350611bdb818560208601611b7b565b611be481611ba5565b840191505092915050565b60006020820190508181036000830152611c098184611bb6565b905092915050565b6000819050919050565b611c2481611c11565b8114611c2f57600080fd5b50565b600081359050611c4181611c1b565b92915050565b600060208284031215611c5d57611c5c611a9a565b5b6000611c6b84828501611c32565b91505092915050565b600073ffffffffffffffffffffffffffffffffffffffff82169050919050565b6000611c9f82611c74565b9050919050565b611caf81611c94565b82525050565b6000602082019050611cca6000830184611ca6565b92915050565b611cd981611c94565b8114611ce457600080fd5b50565b600081359050611cf681611cd0565b92915050565b60008060408385031215611d1357611d12611a9a565b5b6000611d2185828601611ce7565b9250506020611d3285828601611c32565b9150509250929050565b600080600060608486031215611d5557611d54611a9a565b5b6000611d6386828701611ce7565b9350506020611d7486828701611ce7565b9250506040611d8586828701611c32565b9150509250925092565b600080fd5b600080fd5b7f4e487b7100000000000000000000000000000000000000000000000000000000600052604160045260246000fd5b611dd182611ba5565b810181811067ffffffffffffffff82111715611df057611def611d99565b5b80604052505050565b6000611e03611a90565b9050611e0f8282611dc8565b919050565b600067ffffffffffffffff821115611e2f57611e2e611d99565b5b611e3882611ba5565b9050602081019050919050565b82818337600083830152505050565b6000611e67611e6284611e14565b611df9565b905082815260208101848484011115611e8357611e82611d94565b5b611e8e848285611e45565b509392505050565b600082601f830112611eab57611eaa611d8f565b5b8135611ebb848260208601611e54565b91505092915050565b600060208284031215611eda57611ed9611a9a565b5b600082013567ffffffffffffffff811115611ef857611ef7611a9f565b5b611f0484828501611e96565b91505092915050565b611f1681611c11565b82525050565b6000602082019050611f316000830184611f0d565b92915050565b600067ffffffffffffffff821115611f5257611f51611d99565b5b602082029050602081019050919050565b600080fd5b6000611f7b611f7684611f37565b611df9565b90508083825260208201905060208402830185811115611f9e57611f9d611f63565b5b835b81811015611fe557803567ffffffffffffffff811115611fc357611fc2611d8f565b5b808601611fd08982611e96565b85526020850194505050602081019050611fa0565b5050509392505050565b600082601f83011261200457612003611d8f565b5b8135612014848260208601611f68565b91505092915050565b60006020828403121561203357612032611a9a565b5b600082013567ffffffffffffffff81111561205157612050611a9f565b5b61205d84828501611fef565b91505092915050565b60006020828403121561207c5761207b611a9a565b5b600061208a84828501611ce7565b91505092915050565b61209c81611b29565b81146120a757600080fd5b50565b6000813590506120b981612093565b92915050565b600080604083850312156120d6576120d5611a9a565b5b60006120e485828601611ce7565b92505060206120f5858286016120aa565b9150509250929050565b600067ffffffffffffffff82111561211a57612119611d99565b5b61212382611ba5565b9050602081019050919050565b600061214361213e846120ff565b611df9565b90508281526020810184848401111561215f5761215e611d94565b5b61216a848285611e45565b509392505050565b600082601f83011261218757612186611d8f565b5b8135612197848260208601612130565b91505092915050565b600080600080608085870312156121ba576121b9611a9a565b5b60006121c887828801611ce7565b94505060206121d987828801611ce7565b93505060406121ea87828801611c32565b925050606085013567ffffffffffffffff81111561220b5761220a611a9f565b5b61221787828801612172565b91505092959194509250565b600081519050919050565b600082825260208201905092915050565b6000819050602082019050919050565b600082825260208201905092915050565b600061226b82611b5f565b612275818561224f565b9350612285818560208601611b7b565b61228e81611ba5565b840191505092915050565b60006122a58383612260565b905092915050565b6000602082019050919050565b60006122c582612223565b6122cf818561222e565b9350836020820285016122e18561223f565b8060005b8581101561231d57848403895281516122fe8582612299565b9450612309836122ad565b925060208a019950506001810190506122e5565b50829750879550505050505092915050565b6000602082019050818103600083015261234981846122ba565b905092915050565b6000806040838503121561236857612367611a9a565b5b600061237685828601611ce7565b925050602061238785828601611ce7565b9150509250929050565b7f4e487b7100000000000000000000000000000000000000000000000000000000600052602260045260246000fd5b600060028204905060018216806123d857607f821691505b6020821081036123eb576123ea612391565b5b50919050565b7f4552433732313a20617070726f76616c20746f2063757272656e74206f776e6560008201527f7200000000000000000000000000000000000000000000000000000000000000602082015250565b600061244d602183611b6a565b9150612458826123f1565b604082019050919050565b6000602082019050818103600083015261247c81612440565b9050919050565b7f4552433732313a20617070726f76652063616c6c6572206973206e6f7420746f60008201527f6b656e206f776e6572206e6f7220617070726f76656420666f7220616c6c0000602082015250565b60006124df603e83611b6a565b91506124ea82612483565b604082019050919050565b6000602082019050818103600083015261250e816124d2565b9050919050565b7f4552433732313a2063616c6c6572206973206e6f7420746f6b656e206f776e6560008201527f72206e6f7220617070726f766564000000000000000000000000000000000000602082015250565b6000612571602e83611b6a565b915061257c82612515565b604082019050919050565b600060208201905081810360008301526125a081612564565b9050919050565b6000819050919050565b6000819050919050565b60006125d66125d16125cc846125a7565b6125b1565b611c11565b9050919050565b6125e6816125bb565b82525050565b60006080820190506126016000830187611ca6565b61260e6020830186611f0d565b61261b60408301856125dd565b6126286060830184611ca6565b95945050505050565b7f4552433732313a20696e76616c696420746f6b656e2049440000000000000000600082015250565b6000612667601883611b6a565b915061267282612631565b602082019050919050565b600060208201905081810360008301526126968161265a565b9050919050565b7f4e487b7100000000000000000000000000000000000000000000000000000000600052603260045260246000fd5b7f4e487b7100000000000000000000000000000000000000000000000000000000600052601160045260246000fd5b600061270682611c11565b91507fffffffffffffffffffffffffffffffffffffffffffffffffffffffffffffffff8203612738576127376126cc565b5b600182019050919050565b7f4552433732313a2061646472657373207a65726f206973206e6f74206120766160008201527f6c6964206f776e65720000000000000000000000000000000000000000000000602082015250565b600061279f602983611b6a565b91506127aa82612743565b604082019050919050565b600060208201905081810360008301526127ce81612792565b9050919050565b600081905092915050565b60006127eb82611b5f565b6127f581856127d5565b9350612805818560208601611b7b565b80840191505092915050565b600061281d82856127e0565b915061282982846127e0565b91508190509392505050565b600061284082611c11565b915061284b83611c11565b9250828203905081811115612863576128626126cc565b5b92915050565b7f4552433732313a207472616e736665722066726f6d20696e636f72726563742060008201527f6f776e6572000000000000000000000000000000000000000000000000000000602082015250565b60006128c5602583611b6a565b91506128d082612869565b604082019050919050565b600060208201905081810360008301526128f4816128b8565b9050919050565b7f4552433732313a207472616e7366657220746f20746865207a65726f2061646460008201527f7265737300000000000000000000000000000000000000000000000000000000602082015250565b6000612957602483611b6a565b9150612962826128fb565b604082019050919050565b600060208201905081810360008301526129868161294a565b9050919050565b600061299882611c11565b91506129a383611c11565b92508282019050808211156129bb576129ba6126cc565b5b92915050565b7f4552433732313a206d696e7420746f20746865207a65726f2061646472657373600082015250565b60006129f7602083611b6a565b9150612a02826129c1565b602082019050919050565b60006020820190508181036000830152612a26816129ea565b9050919050565b7f4552433732313a20746f6b656e20616c7265616479206d696e74656400000000600082015250565b6000612a63601c83611b6a565b9150612a6e82612a2d565b602082019050919050565b60006020820190508181036000830152612a9281612a56565b9050919050565b7f45524337323155524953746f726167653a2055524920736574206f66206e6f6e60008201527f6578697374656e7420746f6b656e000000000000000000000000000000000000602082015250565b6000612af5602e83611b6a565b9150612b0082612a99565b604082019050919050565b60006020820190508181036000830152612b2481612ae8565b9050919050565b60008190508160005260206000209050919050565b60006020601f8301049050919050565b60008160020a8302905092915050565b600060088302612b907fffffffffffffffffffffffffffffffffffffffffffffffffffffffffffffffff82612b50565b612b9a8683612b50565b95508019841693508086168417925050509392505050565b6000612bcd612bc8612bc384611c11565b6125b1565b611c11565b9050919050565b6000819050919050565b612be783612bb2565b612bfb612bf382612bd4565b848454612b60565b825550505050565b600090565b612c10612c03565b612c1b818484612bde565b505050565b5b81811015612c3f57612c34600082612c08565b600181019050612c21565b5050565b601f821115612c8457612c5581612b2b565b612c5e84612b40565b81016020851015612c6d578190505b612c81612c7985612b40565b830182612c20565b50505b505050565b60008160020a8304905092915050565b6000612caa60001984600802612c89565b1980831691505092915050565b6000612cc38383612c99565b9150826002028217905092915050565b612cdc82611b5f565b67ffffffffffffffff811115612cf557612cf4611d99565b5b612cff82546123c0565b612d0a828285612c43565b600060209050601f831160018114612d3d5760008415612d2b578287015190505b612d358582612cb7565b865550612d9d565b601f198416612d4b86612b2b565b60005b82811015612d7357848901518255600182019150602085019450602081019050612d4e565b86831015612d905784890151612d8c601f891682612c99565b8355505b6001600288020188555050505b505050505050565b7f4552433732313a20617070726f766520746f2063616c6c657200000000000000600082015250565b6000612ddb601983611b6a565b9150612de682612da5565b602082019050919050565b60006020820190508181036000830152612e0a81612dce565b9050919050565b7f4552433732313a207472616e7366657220746f206e6f6e20455243373231526560008201527f63656976657220696d706c656d656e7465720000000000000000000000000000602082015250565b6000612e6d603283611b6a565b9150612e7882612e11565b604082019050919050565b60006020820190508181036000830152612e9c81612e60565b9050919050565b600081519050919050565b600082825260208201905092915050565b6000612eca82612ea3565b612ed48185612eae565b9350612ee4818560208601611b7b565b612eed81611ba5565b840191505092915050565b6000608082019050612f0d6000830187611ca6565b612f1a6020830186611ca6565b612f276040830185611f0d565b8181036060830152612f398184612ebf565b905095945050505050565b600081519050612f5381611ad0565b92915050565b600060208284031215612f6f57612f6e611a9a565b5b6000612f7d84828501612f44565b91505092915050565b7f4e487b7100000000000000000000000000000000000000000000000000000000600052601260045260246000fd5b6000612fc082611c11565b9150612fcb83611c11565b925082612fdb57612fda612f86565b5b828204905092915050565b6000612ff182611c11565b9150612ffc83611c11565b92508261300c5761300b612f86565b5b82820690509291505056fea2646970667358221220162f60c88c228da607524c16247680183a076f774c9ab0f762f7bf8ea63edd2464736f6c63430008110033",
  "immutableReferences": {},
  "source": "// SPDX-License-Identifier: MIT\r\npragma solidity ^0.8.0;\r\n\r\nimport \"@openzeppelin/contracts/token/ERC721/ERC721.sol\";\r\nimport \"@openzeppelin/contracts/token/ERC721/extensions/ERC721URIStorage.sol\";\r\nimport \"@openzeppelin/contracts/utils/Counters.sol\";\r\n\r\ninterface INFTMarket {\r\n   function createMarketItemFromNFT(address nftContract, uint256 tokenID, uint256 price, address minter) external payable;\r\n}\r\n\r\ncontract NFT is ERC721URIStorage{\r\n    using Counters for Counters.Counter;\r\n    Counters.Counter private _tokenIDs;\r\n    address private contractAddress;\r\n    INFTMarket private nftMarket;\r\n    address private owner;\r\n    string private _albumCoverURI;\r\n\r\n    modifier onlyOwner(){\r\n        require(msg.sender == owner, \"untrusted message sender\");\r\n        _;\r\n    }\r\n\r\n    constructor(string memory name, address marketPlaceAddress, address ownerContract, string memory albumCoverURI) ERC721(name, name){\r\n        owner = ownerContract;\r\n        contractAddress = marketPlaceAddress;\r\n        _albumCoverURI = albumCoverURI;\r\n    }\r\n\r\n    function createSongTokens(string[] memory metaDataURIs) public {\r\n        for (uint i = 0; i < metaDataURIs.length; i++){\r\n            createToken(metaDataURIs[i]);\r\n        }\r\n    }\r\n\r\n    function createToken(string memory tokenURI) public returns (uint256 newItemId){\r\n        _tokenIDs.increment();\r\n        newItemId = _tokenIDs.current();\r\n        _mint(msg.sender, newItemId);\r\n        _setTokenURI(newItemId, tokenURI);\r\n        setApprovalForAll(contractAddress, true);\r\n        // setApprovalForAll(owner, true);\r\n        nftMarket = INFTMarket(contractAddress);\r\n        nftMarket.createMarketItemFromNFT(address(this), newItemId, 0, msg.sender);\r\n    }\r\n\r\n    function getTotalTokens() public view returns (uint256 totalTokens){\r\n        return _tokenIDs.current();\r\n    }\r\n\r\n    function getSongsFromAlbum() public view returns(string[] memory){\r\n        uint totalTokens = _tokenIDs.current();\r\n        string[] memory tokenURIs = new string[](totalTokens);\r\n        for (uint i = 1; i <= _tokenIDs.current(); i++){\r\n            tokenURIs[i - 1] = tokenURI(i);\r\n        }\r\n\r\n        return tokenURIs;\r\n    }\r\n}",
  "sourcePath": "d:\\VS Projects\\Music NFT\\music-nft-project\\contracts\\NFT.sol",
  "compiler": {
    "name": "solc",
    "version": "0.8.17+commit.8df45f5f.Emscripten.clang"
  },
  "schemaVersion": "3.4.10",
  "updatedAt": "2022-09-30T01:29:49.483Z",
  "networkType": "ethereum",
  "devdoc": {
    "kind": "dev",
    "methods": {
      "approve(address,uint256)": {
        "details": "See {IERC721-approve}."
      },
      "balanceOf(address)": {
        "details": "See {IERC721-balanceOf}."
      },
      "getApproved(uint256)": {
        "details": "See {IERC721-getApproved}."
      },
      "isApprovedForAll(address,address)": {
        "details": "See {IERC721-isApprovedForAll}."
      },
      "name()": {
        "details": "See {IERC721Metadata-name}."
      },
      "ownerOf(uint256)": {
        "details": "See {IERC721-ownerOf}."
      },
      "safeTransferFrom(address,address,uint256)": {
        "details": "See {IERC721-safeTransferFrom}."
      },
      "safeTransferFrom(address,address,uint256,bytes)": {
        "details": "See {IERC721-safeTransferFrom}."
      },
      "setApprovalForAll(address,bool)": {
        "details": "See {IERC721-setApprovalForAll}."
      },
      "supportsInterface(bytes4)": {
        "details": "See {IERC165-supportsInterface}."
      },
      "symbol()": {
        "details": "See {IERC721Metadata-symbol}."
      },
      "tokenURI(uint256)": {
        "details": "See {IERC721Metadata-tokenURI}."
      },
      "transferFrom(address,address,uint256)": {
        "details": "See {IERC721-transferFrom}."
      }
    },
    "version": 1
  },
  "userdoc": {
    "kind": "user",
    "methods": {},
    "version": 1
  }
}